{
  "address": "0x012261Dcdd79D40F5C0703c4B179d30BDCf8f1F3",
  "abi": [
    {
      "inputs": [
        {
          "internalType": "bytes",
          "name": "challenge",
          "type": "bytes"
        },
        {
          "internalType": "bool",
          "name": "requireUV",
          "type": "bool"
        },
        {
          "components": [
            {
              "internalType": "bytes",
              "name": "authenticatorData",
              "type": "bytes"
            },
            {
              "internalType": "string",
              "name": "clientDataJSON",
              "type": "string"
            },
            {
              "internalType": "uint256",
              "name": "challengeIndex",
              "type": "uint256"
            },
            {
              "internalType": "uint256",
              "name": "typeIndex",
              "type": "uint256"
            },
            {
              "internalType": "uint256",
              "name": "r",
              "type": "uint256"
            },
            {
              "internalType": "uint256",
              "name": "s",
              "type": "uint256"
            }
          ],
          "internalType": "struct WebAuthn.WebAuthnAuth",
          "name": "webAuthnAuth",
          "type": "tuple"
        },
        {
          "internalType": "uint256",
          "name": "x",
          "type": "uint256"
        },
        {
          "internalType": "uint256",
          "name": "y",
          "type": "uint256"
        }
      ],
      "name": "verify",
      "outputs": [
        {
          "internalType": "bool",
          "name": "",
          "type": "bool"
        }
      ],
      "stateMutability": "view",
      "type": "function"
    }
  ],
  "transactionHash": "0x359fb703d448e44b8fc90c389e3b4faa217642e8bcc54881ef0a360d1ca663b5",
  "args": [],
  "numDeployments": 1,
  "solcInputHash": "60ba8be1f543c847f454fdce1d3d8c3a",
  "bytecode": "0x608060405234801561001057600080fd5b5061211a806100206000396000f3fe608060405234801561001057600080fd5b506004361061002b5760003560e01c8063fca6b59514610030575b600080fd5b61004361003e366004611c92565b610057565b604051901515815260200160405180910390f35b60006100a687878080601f01602080910402602001604051908101604052809392919081815260200183838082843760009201919091525089925061009f9150889050611e4f565b86866100b1565b979650505050505050565b60006100de60027fffffffff00000000ffffffffffffffffbce6faada7179e84f3b9cac2fc632551611f16565b8460a0015111156100f1575060006104b2565b606084015160009061011490610108816015611f51565b602088015191906104bb565b90507fff1a2a9176d650e4a99dedb58f1793003935130579fe17b5a3f698ac5b00e63481805190602001201461014e5760009150506104b2565b600061015988610540565b6040516020016101699190611f88565b604051602081830303815290604052905060006101a18760400151835189604001516101959190611f51565b60208a015191906104bb565b905081805190602001208180519060200120146101c457600093505050506104b2565b865180517f010000000000000000000000000000000000000000000000000000000000000091829160209081106101fd576101fd611ff4565b0160200151167fff00000000000000000000000000000000000000000000000000000000000000161461023657600093505050506104b2565b8780156102a25750865180517f0400000000000000000000000000000000000000000000000000000000000000918291602090811061027757610277611ff4565b0160200151167fff000000000000000000000000000000000000000000000000000000000000001614155b156102b357600093505050506104b2565b6000600288602001516040516102c99190612023565b602060405180830381855afa1580156102e6573d6000803e3d6000fd5b5050506040513d601f19601f82011682018060405250810190610309919061203f565b905060006002896000015183604051602001610326929190612058565b604080517fffffffffffffffffffffffffffffffffffffffffffffffffffffffffffffffe08184030181529082905261035e91612023565b602060405180830381855afa15801561037b573d6000803e3d6000fd5b5050506040513d601f19601f8201168201806040525081019061039e919061203f565b6080808b015160a0808d015160408051602081018790529081019390935260608301529181018b905290810189905290915060009060c001604051602081830303815290604052905060008061010073ffffffffffffffffffffffffffffffffffffffff16836040516104119190612023565b600060405180830381855afa9150503d806000811461044c576040519150601f19603f3d011682016040523d82523d6000602084013e610451565b606091505b508051919350915015158280156104655750805b15610491578180602001905181019061047e919061203f565b60011499505050505050505050506104b2565b6104a6858e608001518f60a001518f8f61056c565b99505050505050505050505b95945050505050565b606083518281116104ca578092505b8381116104d5578093505b50818310156105395750604051828203808252938301937fffffffffffffffffffffffffffffffffffffffffffffffffffffffffffffffe0601f820181165b86810151848201528101806105145750600083830160200152603f9091011681016040525b9392505050565b6060610566826040518060600160405280604081526020016120a56040913960006106bb565b92915050565b600084158061059b57507fffffffff00000000ffffffffffffffffbce6faada7179e84f3b9cac2fc6325518510155b806105a4575083155b806105cf57507fffffffff00000000ffffffffffffffffbce6faada7179e84f3b9cac2fc6325518410155b156105dc575060006104b2565b6105e6838361083b565b6105f2575060006104b2565b60006105fd856109b4565b905060007fffffffff00000000ffffffffffffffffbce6faada7179e84f3b9cac2fc632551828909905060007fffffffff00000000ffffffffffffffffbce6faada7179e84f3b9cac2fc6325518389099050600061065d87878585610a38565b90507fffffffff00000000ffffffffffffffffbce6faada7179e84f3b9cac2fc6325516106aa8a7fffffffff00000000ffffffffffffffffbce6faada7179e84f3b9cac2fc63255161207a565b8208159a9950505050505050505050565b606083516000036106db5750604080516020810190915260008152610539565b60008261070c576003855160046106f2919061208d565b6106fd906002611f51565b6107079190611f16565b610731565b60038551600261071c9190611f51565b6107269190611f16565b61073190600461208d565b905060008167ffffffffffffffff81111561074e5761074e611d4c565b6040519080825280601f01601f191660200182016040528015610778576020820181803683370190505b50905060018501602082018788518901602081018051600082525b828410156107ee576003840193508351603f8160121c168701518653600186019550603f81600c1c168701518653600186019550603f8160061c168701518653600186019550603f8116870151865350600185019450610793565b90525050851561082f5760038851066001811461081257600281146108255761082d565b603d6001830353603d600283035361082d565b603d60018303535b505b50909695505050505050565b60007fffffffff00000001000000000000000000000000ffffffffffffffffffffffff8310158061088c57507fffffffff00000001000000000000000000000000ffffffffffffffffffffffff8210155b8061089e57508215801561089e575081155b156108ab57506000610566565b60007fffffffff00000001000000000000000000000000ffffffffffffffffffffffff838409905060007fffffffff00000001000000000000000000000000ffffffffffffffffffffffff807fffffffff00000001000000000000000000000000fffffffffffffffffffffffc87097fffffffff00000001000000000000000000000000ffffffffffffffffffffffff877fffffffff00000001000000000000000000000000ffffffffffffffffffffffff898a09090890507fffffffff00000001000000000000000000000000ffffffffffffffffffffffff7f5ac635d8aa3a93e7b3ebbd55769886bc651d06b0cc53b0f63bce3c3e27d2604b820891909114949350505050565b600060405160208152602080820152602060408201528260608201527fffffffff00000000ffffffffffffffffbce6faada7179e84f3b9cac2fc63254f60808201527fffffffff00000000ffffffffffffffffbce6faada7179e84f3b9cac2fc63255160a082015260208160c0836005600019fa610a3157600080fd5b5192915050565b600080808060ff818088158015610a4d575087155b15610a61576000965050505050505061154e565b610aad7f6b17d1f2e12c4247f8bce6e563a440f277037d812deb33a0f4a13945d898c2967f4fe342e2fe1a7f9b8ee7eb4a7c0f9e162bce33576b315ececbb6406837bf51f58d8d611556565b909250905081158015610abe575080155b15610b2f577fffffffff00000000ffffffffffffffffbce6faada7179e84f3b9cac2fc632551887fffffffff00000000ffffffffffffffffbce6faada7179e84f3b9cac2fc632551038a0898506000975088158015610b1b575087155b15610b2f576000965050505050505061154e565b600189841c16600189851c1660011b015b80610b625760018403935060018a851c1660018a861c1660011b019050610b40565b50600189841c16600189851c1660011b01955060018603610bc4577f6b17d1f2e12c4247f8bce6e563a440f277037d812deb33a0f4a13945d898c29696507f4fe342e2fe1a7f9b8ee7eb4a7c0f9e162bce33576b315ececbb6406837bf51f593505b60028603610bd3578a96508993505b60038603610be2578196508093505b60018303925060019550600194505b827fffffffffffffffffffffffffffffffffffffffffffffffffffffffffffffffff11156114a4577fffffffff00000001000000000000000000000000ffffffffffffffffffffffff846002097fffffffff00000001000000000000000000000000ffffffffffffffffffffffff8182097fffffffff00000001000000000000000000000000ffffffffffffffffffffffff818a097fffffffff00000001000000000000000000000000ffffffffffffffffffffffff82840992507fffffffff00000001000000000000000000000000ffffffffffffffffffffffff807fffffffff00000001000000000000000000000000ffffffffffffffffffffffff8b8d087fffffffff00000001000000000000000000000000ffffffffffffffffffffffff8c7fffffffff00000001000000000000000000000000ffffffffffffffffffffffff038e08096003097fffffffff00000001000000000000000000000000ffffffffffffffffffffffff89850998507fffffffff00000001000000000000000000000000ffffffffffffffffffffffff8a840999507fffffffff00000001000000000000000000000000ffffffffffffffffffffffff80837fffffffff00000001000000000000000000000000fffffffffffffffffffffffd097fffffffff00000001000000000000000000000000ffffffffffffffffffffffff838409089a507fffffffff00000001000000000000000000000000ffffffffffffffffffffffff80837fffffffff00000001000000000000000000000000ffffffffffffffffffffffff038d08820992507fffffffff00000001000000000000000000000000ffffffffffffffffffffffff837fffffffff00000001000000000000000000000000ffffffffffffffffffffffff8a870908975060018d881c1660018d891c1660011b01905080610ecd57877fffffffff00000001000000000000000000000000ffffffffffffffffffffffff03975050505050611499565b60018103610f1c577f6b17d1f2e12c4247f8bce6e563a440f277037d812deb33a0f4a13945d898c29693507f4fe342e2fe1a7f9b8ee7eb4a7c0f9e162bce33576b315ececbb6406837bf51f592505b60028103610f2b578e93508d92505b60038103610f3a578593508492505b89610f5357509198506001975087965094506114999050565b7fffffffff00000001000000000000000000000000ffffffffffffffffffffffff887fffffffff00000001000000000000000000000000ffffffffffffffffffffffff8b8609087fffffffff00000001000000000000000000000000ffffffffffffffffffffffff8c7fffffffff00000001000000000000000000000000ffffffffffffffffffffffff037fffffffff00000001000000000000000000000000ffffffffffffffffffffffff8d8809089350806112925783611292577fffffffff00000001000000000000000000000000ffffffffffffffffffffffff897fffffffff00000001000000000000000000000000fffffffffffffffffffffffd0994507fffffffff00000001000000000000000000000000ffffffffffffffffffffffff85860993507fffffffff00000001000000000000000000000000ffffffffffffffffffffffff848d0992507fffffffff00000001000000000000000000000000ffffffffffffffffffffffff84860994507fffffffff00000001000000000000000000000000ffffffffffffffffffffffff808c7fffffffff00000001000000000000000000000000ffffffffffffffffffffffff038e087fffffffff00000001000000000000000000000000ffffffffffffffffffffffff8d8f080990507fffffffff00000001000000000000000000000000ffffffffffffffffffffffff8160030991507fffffffff00000001000000000000000000000000ffffffffffffffffffffffff8a860999507fffffffff00000001000000000000000000000000ffffffffffffffffffffffff8b85099a507fffffffff00000001000000000000000000000000ffffffffffffffffffffffff80847fffffffff00000001000000000000000000000000fffffffffffffffffffffffd097fffffffff00000001000000000000000000000000ffffffffffffffffffffffff848509089b507fffffffff00000001000000000000000000000000ffffffffffffffffffffffff808d7fffffffff00000001000000000000000000000000ffffffffffffffffffffffff038508830993507fffffffff00000001000000000000000000000000ffffffffffffffffffffffff808a8709850898505050505050611499565b7fffffffff00000001000000000000000000000000ffffffffffffffffffffffff84850991507fffffffff00000001000000000000000000000000ffffffffffffffffffffffff8483097fffffffff00000001000000000000000000000000ffffffffffffffffffffffff838d099b507fffffffff00000001000000000000000000000000ffffffffffffffffffffffff818c099a507fffffffff00000001000000000000000000000000ffffffffffffffffffffffff838e097fffffffff00000001000000000000000000000000ffffffffffffffffffffffff80827fffffffff00000001000000000000000000000000fffffffffffffffffffffffd097fffffffff00000001000000000000000000000000ffffffffffffffffffffffff847fffffffff00000001000000000000000000000000ffffffffffffffffffffffff037fffffffff00000001000000000000000000000000ffffffffffffffffffffffff878809080893507fffffffff00000001000000000000000000000000ffffffffffffffffffffffff80838d097fffffffff00000001000000000000000000000000ffffffffffffffffffffffff857fffffffff00000001000000000000000000000000ffffffffffffffffffffffff887fffffffff00000001000000000000000000000000ffffffffffffffffffffffff03860809089a50505050809a50505050505b600183039250610bf1565b60405186606082015260208152602080820152602060408201527fffffffff00000001000000000000000000000000fffffffffffffffffffffffd60808201527fffffffff00000001000000000000000000000000ffffffffffffffffffffffff60a082015260208160c0836005600019fa61151f57600080fd5b7fffffffff00000001000000000000000000000000ffffffffffffffffffffffff815189099750505050505050505b949350505050565b60008080808661156d5785859350935050506115db565b8461157f5787879350935050506115db565b858814801561158d57508487145b156115ae5761159f88886001806115e4565b929a50909850925090506115c8565b6115bd88886001808a8a61186e565b929a50909850925090505b6115d488888484611b33565b9350935050505b94509492505050565b6000806000807fffffffff00000001000000000000000000000000ffffffffffffffffffffffff8760020993507fffffffff00000001000000000000000000000000ffffffffffffffffffffffff84850991507fffffffff00000001000000000000000000000000ffffffffffffffffffffffff82890990507fffffffff00000001000000000000000000000000ffffffffffffffffffffffff82850992507fffffffff00000001000000000000000000000000ffffffffffffffffffffffff86830991507fffffffff00000001000000000000000000000000ffffffffffffffffffffffff807fffffffff00000001000000000000000000000000ffffffffffffffffffffffff888b087fffffffff00000001000000000000000000000000ffffffffffffffffffffffff897fffffffff00000001000000000000000000000000ffffffffffffffffffffffff038c080960030995507fffffffff00000001000000000000000000000000ffffffffffffffffffffffff80827fffffffff00000001000000000000000000000000fffffffffffffffffffffffd097fffffffff00000001000000000000000000000000ffffffffffffffffffffffff8889090893507fffffffff00000001000000000000000000000000ffffffffffffffffffffffff80857fffffffff00000001000000000000000000000000ffffffffffffffffffffffff038308870997507fffffffff00000001000000000000000000000000ffffffffffffffffffffffff85840990507fffffffff00000001000000000000000000000000ffffffffffffffffffffffff808885097fffffffff00000001000000000000000000000000ffffffffffffffffffffffff0389089250945094509450949050565b6000806000808860000361188d57508492508391506001905080611b26565b7fffffffff00000001000000000000000000000000ffffffffffffffffffffffff9889039889818988090894507fffffffff00000001000000000000000000000000ffffffffffffffffffffffff8a7fffffffff00000001000000000000000000000000ffffffffffffffffffffffff037fffffffff00000001000000000000000000000000ffffffffffffffffffffffff8a89090895507fffffffff00000001000000000000000000000000ffffffffffffffffffffffff86870993507fffffffff00000001000000000000000000000000ffffffffffffffffffffffff86850992507fffffffff00000001000000000000000000000000ffffffffffffffffffffffff84890991507fffffffff00000001000000000000000000000000ffffffffffffffffffffffff83880990507fffffffff00000001000000000000000000000000ffffffffffffffffffffffff848b0997507fffffffff00000001000000000000000000000000ffffffffffffffffffffffff80897fffffffff00000001000000000000000000000000fffffffffffffffffffffffd097fffffffff00000001000000000000000000000000ffffffffffffffffffffffff857fffffffff00000001000000000000000000000000ffffffffffffffffffffffff037fffffffff00000001000000000000000000000000ffffffffffffffffffffffff898a09080893507fffffffff00000001000000000000000000000000ffffffffffffffffffffffff80848b097fffffffff00000001000000000000000000000000ffffffffffffffffffffffff877fffffffff00000001000000000000000000000000ffffffffffffffffffffffff887fffffffff00000001000000000000000000000000ffffffffffffffffffffffff038d08090892505b9650965096509692505050565b6000806000611b4184611be8565b90507fffffffff00000001000000000000000000000000ffffffffffffffffffffffff818709915060007fffffffff00000001000000000000000000000000ffffffffffffffffffffffff82870990507fffffffff00000001000000000000000000000000ffffffffffffffffffffffff81820991507fffffffff00000001000000000000000000000000ffffffffffffffffffffffff8289099350505094509492505050565b600060405160208152602080820152602060408201528260608201527fffffffff00000001000000000000000000000000fffffffffffffffffffffffd60808201527fffffffff00000001000000000000000000000000ffffffffffffffffffffffff60a082015260208160c0836005600019fa610a3157600080fd5b80358015158114611c7557600080fd5b919050565b600060c08284031215611c8c57600080fd5b50919050565b60008060008060008060a08789031215611cab57600080fd5b863567ffffffffffffffff80821115611cc357600080fd5b818901915089601f830112611cd757600080fd5b813581811115611ce657600080fd5b8a6020828501011115611cf857600080fd5b60208301985080975050611d0e60208a01611c65565b95506040890135915080821115611d2457600080fd5b50611d3189828a01611c7a565b93505060608701359150608087013590509295509295509295565b7f4e487b7100000000000000000000000000000000000000000000000000000000600052604160045260246000fd5b60405160c0810167ffffffffffffffff81118282101715611d9e57611d9e611d4c565b60405290565b600082601f830112611db557600080fd5b813567ffffffffffffffff80821115611dd057611dd0611d4c565b604051601f83017fffffffffffffffffffffffffffffffffffffffffffffffffffffffffffffffe0908116603f01168101908282118183101715611e1657611e16611d4c565b81604052838152866020858801011115611e2f57600080fd5b836020870160208301376000602085830101528094505050505092915050565b600060c08236031215611e6157600080fd5b611e69611d7b565b823567ffffffffffffffff80821115611e8157600080fd5b611e8d36838701611da4565b83526020850135915080821115611ea357600080fd5b50611eb036828601611da4565b60208301525060408301356040820152606083013560608201526080830135608082015260a083013560a082015280915050919050565b7f4e487b7100000000000000000000000000000000000000000000000000000000600052601160045260246000fd5b600082611f4c577f4e487b7100000000000000000000000000000000000000000000000000000000600052601260045260246000fd5b500490565b8082018082111561056657610566611ee7565b60005b83811015611f7f578181015183820152602001611f67565b50506000910152565b7f226368616c6c656e6765223a2200000000000000000000000000000000000000815260008251611fc081600d850160208701611f64565b7f2200000000000000000000000000000000000000000000000000000000000000600d939091019283015250600e01919050565b7f4e487b7100000000000000000000000000000000000000000000000000000000600052603260045260246000fd5b60008251612035818460208701611f64565b9190910192915050565b60006020828403121561205157600080fd5b5051919050565b6000835161206a818460208801611f64565b9190910191825250602001919050565b8181038181111561056657610566611ee7565b808202811582820484141761056657610566611ee756fe4142434445464748494a4b4c4d4e4f505152535455565758595a6162636465666768696a6b6c6d6e6f707172737475767778797a303132333435363738392d5fa26469706673582212208b5e62388575ed5474135c8736d7dadf86c4a162716cb4e20282594153da23d864736f6c63430008180033",
  "devdoc": {
    "kind": "dev",
    "methods": {},
    "version": 1
  },
  "userdoc": {
    "kind": "user",
    "methods": {},
    "version": 1
  },
  "storageLayout": {
    "storage": [],
    "types": null
  }
}